{
    "_format": "hh-sol-artifact-1",
    "contractName": "EnglishAuction",
    "sourceName": "contracts/EnglishAuction.sol",
    "abi": [
        {
            "inputs": [
                {
                    "internalType": "address",
                    "name": "_nft",
                    "type": "address"
                },
                {
                    "internalType": "uint256",
                    "name": "_nftId",
                    "type": "uint256"
                },
                {
                    "internalType": "uint256",
                    "name": "_startingBid",
                    "type": "uint256"
                },
                {
                    "internalType": "address",
                    "name": "_seller",
                    "type": "address"
                },
                {
                    "internalType": "address",
                    "name": "_auctionToken",
                    "type": "address"
                }
            ],
            "stateMutability": "nonpayable",
            "type": "constructor"
        },
        {
            "anonymous": false,
            "inputs": [
                {
                    "indexed": true,
                    "internalType": "address",
                    "name": "sender",
                    "type": "address"
                },
                {
                    "indexed": false,
                    "internalType": "uint256",
                    "name": "amount",
                    "type": "uint256"
                }
            ],
            "name": "Bid",
            "type": "event"
        },
        {
            "anonymous": false,
            "inputs": [
                {
                    "indexed": false,
                    "internalType": "address",
                    "name": "highestBidder",
                    "type": "address"
                },
                {
                    "indexed": false,
                    "internalType": "uint256",
                    "name": "amount",
                    "type": "uint256"
                }
            ],
            "name": "End",
            "type": "event"
        },
        {
            "anonymous": false,
            "inputs": [
                {
                    "indexed": false,
                    "internalType": "uint256",
                    "name": "statedAt",
                    "type": "uint256"
                }
            ],
            "name": "Start",
            "type": "event"
        },
        {
            "anonymous": false,
            "inputs": [
                {
                    "indexed": true,
                    "internalType": "address",
                    "name": "bidder",
                    "type": "address"
                },
                {
                    "indexed": false,
                    "internalType": "uint256",
                    "name": "amount",
                    "type": "uint256"
                }
            ],
            "name": "Withdraw",
            "type": "event"
        },
        {
            "inputs": [],
            "name": "auctionToken",
            "outputs": [
                {
                    "internalType": "contract IERC20",
                    "name": "",
                    "type": "address"
                }
            ],
            "stateMutability": "view",
            "type": "function"
        },
        {
            "inputs": [
                {
                    "internalType": "uint256",
                    "name": "_bidAmount",
                    "type": "uint256"
                }
            ],
            "name": "bid",
            "outputs": [],
            "stateMutability": "nonpayable",
            "type": "function"
        },
        {
            "inputs": [
                {
                    "internalType": "address",
                    "name": "",
                    "type": "address"
                }
            ],
            "name": "bids",
            "outputs": [
                {
                    "internalType": "uint256",
                    "name": "",
                    "type": "uint256"
                }
            ],
            "stateMutability": "view",
            "type": "function"
        },
        {
            "inputs": [],
            "name": "end",
            "outputs": [],
            "stateMutability": "nonpayable",
            "type": "function"
        },
        {
            "inputs": [],
            "name": "endAt",
            "outputs": [
                {
                    "internalType": "uint32",
                    "name": "",
                    "type": "uint32"
                }
            ],
            "stateMutability": "view",
            "type": "function"
        },
        {
            "inputs": [],
            "name": "ended",
            "outputs": [
                {
                    "internalType": "bool",
                    "name": "",
                    "type": "bool"
                }
            ],
            "stateMutability": "view",
            "type": "function"
        },
        {
            "inputs": [],
            "name": "highestBid",
            "outputs": [
                {
                    "internalType": "uint256",
                    "name": "",
                    "type": "uint256"
                }
            ],
            "stateMutability": "view",
            "type": "function"
        },
        {
            "inputs": [],
            "name": "highestBidder",
            "outputs": [
                {
                    "internalType": "address",
                    "name": "",
                    "type": "address"
                }
            ],
            "stateMutability": "view",
            "type": "function"
        },
        {
            "inputs": [],
            "name": "nft",
            "outputs": [
                {
                    "internalType": "contract IERC721",
                    "name": "",
                    "type": "address"
                }
            ],
            "stateMutability": "view",
            "type": "function"
        },
        {
            "inputs": [],
            "name": "nftId",
            "outputs": [
                {
                    "internalType": "uint256",
                    "name": "",
                    "type": "uint256"
                }
            ],
            "stateMutability": "view",
            "type": "function"
        },
        {
            "inputs": [],
            "name": "seller",
            "outputs": [
                {
                    "internalType": "address",
                    "name": "",
                    "type": "address"
                }
            ],
            "stateMutability": "view",
            "type": "function"
        },
        {
            "inputs": [
                {
                    "internalType": "uint256",
                    "name": "_timeInverval",
                    "type": "uint256"
                }
            ],
            "name": "start",
            "outputs": [],
            "stateMutability": "nonpayable",
            "type": "function"
        },
        {
            "inputs": [],
            "name": "started",
            "outputs": [
                {
                    "internalType": "bool",
                    "name": "",
                    "type": "bool"
                }
            ],
            "stateMutability": "view",
            "type": "function"
        },
        {
            "inputs": [],
            "name": "withdraw",
            "outputs": [],
            "stateMutability": "nonpayable",
            "type": "function"
        }
    ],
    "bytecode": "0x6101006040523480156200001257600080fd5b5060405162001f0638038062001f06833981810160405281019062000038919062000193565b8473ffffffffffffffffffffffffffffffffffffffff1660808173ffffffffffffffffffffffffffffffffffffffff16815250508360a08181525050826001819055508173ffffffffffffffffffffffffffffffffffffffff1660c08173ffffffffffffffffffffffffffffffffffffffff16815250508073ffffffffffffffffffffffffffffffffffffffff1660e08173ffffffffffffffffffffffffffffffffffffffff168152505050505050506200021b565b600080fd5b600073ffffffffffffffffffffffffffffffffffffffff82169050919050565b60006200012082620000f3565b9050919050565b620001328162000113565b81146200013e57600080fd5b50565b600081519050620001528162000127565b92915050565b6000819050919050565b6200016d8162000158565b81146200017957600080fd5b50565b6000815190506200018d8162000162565b92915050565b600080600080600060a08688031215620001b257620001b1620000ee565b5b6000620001c28882890162000141565b9550506020620001d5888289016200017c565b9450506040620001e8888289016200017c565b9350506060620001fb8882890162000141565b92505060806200020e8882890162000141565b9150509295509295909350565b60805160a05160c05160e051611c4f620002b760003960008181610396015281816106c4015281816109ff0152610cae01526000818161027b0152818161047c015281816107d20152818161093201528181610c8a0152610d3601526000818161095401528181610a2301528181610c160152610d5701526000818161075c015281816108f601528181610bb60152610cf90152611c4f6000f3fe608060405234801561001057600080fd5b50600436106100ea5760003560e01c80637cc3ae8c1161008c57806399fdb3201161006657806399fdb32014610215578063c6bc518214610233578063d57bde7914610251578063efbe1c1c1461026f576100ea565b80637cc3ae8c146101bd57806391f90157146101db57806395805dad146101f9576100ea565b80633ccfd60b116100c85780633ccfd60b14610149578063454a2ab31461015357806347ccca021461016f57806362ea82db1461018d576100ea565b806308551a53146100ef57806312fa6feb1461010d5780631f2698ab1461012b575b600080fd5b6100f7610279565b60405161010491906111f3565b60405180910390f35b61011561029d565b6040516101229190611229565b60405180910390f35b6101336102b0565b6040516101409190611229565b60405180910390f35b6101516102c3565b005b61016d6004803603810190610168919061127f565b61042b565b005b61017761075a565b604051610184919061130b565b60405180910390f35b6101a760048036038101906101a29190611352565b61077e565b6040516101b4919061138e565b60405180910390f35b6101c5610796565b6040516101d291906113c8565b60405180910390f35b6101e36107aa565b6040516101f091906111f3565b60405180910390f35b610213600480360381019061020e919061127f565b6107d0565b005b61021d6109fd565b60405161022a9190611404565b60405180910390f35b61023b610a21565b604051610248919061138e565b60405180910390f35b610259610a45565b604051610266919061138e565b60405180910390f35b610277610a4b565b005b7f000000000000000000000000000000000000000000000000000000000000000081565b600060059054906101000a900460ff1681565b600060049054906101000a900460ff1681565b6000600260003373ffffffffffffffffffffffffffffffffffffffff1673ffffffffffffffffffffffffffffffffffffffff1681526020019081526020016000205490506000811161034a576040517f08c379a0000000000000000000000000000000000000000000000000000000008152600401610341906114a2565b60405180910390fd5b6000600260003373ffffffffffffffffffffffffffffffffffffffff1673ffffffffffffffffffffffffffffffffffffffff168152602001908152602001600020819055506103da33827f000000000000000000000000000000000000000000000000000000000000000073ffffffffffffffffffffffffffffffffffffffff16610e269092919063ffffffff16565b3373ffffffffffffffffffffffffffffffffffffffff167f884edad9ce6fa2440d8a54cc123490eb96d2768479d49ff9c7366125a942436482604051610420919061138e565b60405180910390a250565b600060049054906101000a900460ff1661047a576040517f08c379a00000000000000000000000000000000000000000000000000000000081526004016104719061150e565b60405180910390fd5b7f000000000000000000000000000000000000000000000000000000000000000073ffffffffffffffffffffffffffffffffffffffff163373ffffffffffffffffffffffffffffffffffffffff1603610508576040517f08c379a00000000000000000000000000000000000000000000000000000000081526004016104ff906115a0565b60405180910390fd5b60008054906101000a900463ffffffff1663ffffffff164210610560576040517f08c379a00000000000000000000000000000000000000000000000000000000081526004016105579061160c565b60405180910390fd5b60015481116105a4576040517f08c379a000000000000000000000000000000000000000000000000000000000815260040161059b9061169e565b60405180910390fd5b600073ffffffffffffffffffffffffffffffffffffffff16600060069054906101000a900473ffffffffffffffffffffffffffffffffffffffff1673ffffffffffffffffffffffffffffffffffffffff161461067457600154600260008060069054906101000a900473ffffffffffffffffffffffffffffffffffffffff1673ffffffffffffffffffffffffffffffffffffffff1673ffffffffffffffffffffffffffffffffffffffff168152602001908152602001600020600082825461066c91906116ed565b925050819055505b8060018190555033600060066101000a81548173ffffffffffffffffffffffffffffffffffffffff021916908373ffffffffffffffffffffffffffffffffffffffff1602179055506107093330837f000000000000000000000000000000000000000000000000000000000000000073ffffffffffffffffffffffffffffffffffffffff16610eac909392919063ffffffff16565b3373ffffffffffffffffffffffffffffffffffffffff167fe684a55f31b79eca403df938249029212a5925ec6be8012e099b45bc1019e5d28260405161074f919061138e565b60405180910390a250565b7f000000000000000000000000000000000000000000000000000000000000000081565b60026020528060005260406000206000915090505481565b60008054906101000a900463ffffffff1681565b600060069054906101000a900473ffffffffffffffffffffffffffffffffffffffff1681565b7f000000000000000000000000000000000000000000000000000000000000000073ffffffffffffffffffffffffffffffffffffffff163373ffffffffffffffffffffffffffffffffffffffff161461085e576040517f08c379a00000000000000000000000000000000000000000000000000000000081526004016108559061176d565b60405180910390fd5b600060049054906101000a900460ff16156108ae576040517f08c379a00000000000000000000000000000000000000000000000000000000081526004016108a5906117d9565b60405180910390fd5b6001600060046101000a81548160ff02191690831515021790555080426108d591906116ed565b6000806101000a81548163ffffffff021916908363ffffffff1602179055507f000000000000000000000000000000000000000000000000000000000000000073ffffffffffffffffffffffffffffffffffffffff166323b872dd7f0000000000000000000000000000000000000000000000000000000000000000307f00000000000000000000000000000000000000000000000000000000000000006040518463ffffffff1660e01b8152600401610991939291906117f9565b600060405180830381600087803b1580156109ab57600080fd5b505af11580156109bf573d6000803e3d6000fd5b505050507ff06a29c94c6f4edc1085072972d9441f7603e81c8535a308f214285d0653c850426040516109f2919061138e565b60405180910390a150565b7f000000000000000000000000000000000000000000000000000000000000000081565b7f000000000000000000000000000000000000000000000000000000000000000081565b60015481565b600060049054906101000a900460ff16610a9a576040517f08c379a0000000000000000000000000000000000000000000000000000000008152600401610a919061150e565b60405180910390fd5b600060059054906101000a900460ff1615610aea576040517f08c379a0000000000000000000000000000000000000000000000000000000008152600401610ae19061187c565b60405180910390fd5b60008054906101000a900463ffffffff1663ffffffff16421015610b43576040517f08c379a0000000000000000000000000000000000000000000000000000000008152600401610b3a906118e8565b60405180910390fd5b6001600060056101000a81548160ff021916908315150217905550600073ffffffffffffffffffffffffffffffffffffffff16600060069054906101000a900473ffffffffffffffffffffffffffffffffffffffff1673ffffffffffffffffffffffffffffffffffffffff1614610cf7577f000000000000000000000000000000000000000000000000000000000000000073ffffffffffffffffffffffffffffffffffffffff166323b872dd30600060069054906101000a900473ffffffffffffffffffffffffffffffffffffffff167f00000000000000000000000000000000000000000000000000000000000000006040518463ffffffff1660e01b8152600401610c53939291906117f9565b600060405180830381600087803b158015610c6d57600080fd5b505af1158015610c81573d6000803e3d6000fd5b50505050610cf27f00000000000000000000000000000000000000000000000000000000000000006001547f000000000000000000000000000000000000000000000000000000000000000073ffffffffffffffffffffffffffffffffffffffff16610e269092919063ffffffff16565b610dc7565b7f000000000000000000000000000000000000000000000000000000000000000073ffffffffffffffffffffffffffffffffffffffff166323b872dd307f00000000000000000000000000000000000000000000000000000000000000007f00000000000000000000000000000000000000000000000000000000000000006040518463ffffffff1660e01b8152600401610d94939291906117f9565b600060405180830381600087803b158015610dae57600080fd5b505af1158015610dc2573d6000803e3d6000fd5b505050505b7f7d7570b046e5ead3a4f3fbc9fa2445113625a1e79823776146316bafed6b8cc5600060069054906101000a900473ffffffffffffffffffffffffffffffffffffffff16600154604051610e1c929190611908565b60405180910390a1565b610ea78363a9059cbb60e01b8484604051602401610e45929190611908565b604051602081830303815290604052907bffffffffffffffffffffffffffffffffffffffffffffffffffffffff19166020820180517bffffffffffffffffffffffffffffffffffffffffffffffffffffffff8381831617835250505050610f35565b505050565b610f2f846323b872dd60e01b858585604051602401610ecd939291906117f9565b604051602081830303815290604052907bffffffffffffffffffffffffffffffffffffffffffffffffffffffff19166020820180517bffffffffffffffffffffffffffffffffffffffffffffffffffffffff8381831617835250505050610f35565b50505050565b6000610f97826040518060400160405280602081526020017f5361666545524332303a206c6f772d6c6576656c2063616c6c206661696c65648152508573ffffffffffffffffffffffffffffffffffffffff16610ffc9092919063ffffffff16565b9050600081511115610ff75780806020019051810190610fb7919061195d565b610ff6576040517f08c379a0000000000000000000000000000000000000000000000000000000008152600401610fed906119fc565b60405180910390fd5b5b505050565b606061100b8484600085611014565b90509392505050565b606082471015611059576040517f08c379a000000000000000000000000000000000000000000000000000000000815260040161105090611a8e565b60405180910390fd5b61106285611128565b6110a1576040517f08c379a000000000000000000000000000000000000000000000000000000000815260040161109890611afa565b60405180910390fd5b6000808673ffffffffffffffffffffffffffffffffffffffff1685876040516110ca9190611b8b565b60006040518083038185875af1925050503d8060008114611107576040519150601f19603f3d011682016040523d82523d6000602084013e61110c565b606091505b509150915061111c82828661114b565b92505050949350505050565b6000808273ffffffffffffffffffffffffffffffffffffffff163b119050919050565b6060831561115b578290506111ab565b60008351111561116e5782518084602001fd5b816040517f08c379a00000000000000000000000000000000000000000000000000000000081526004016111a29190611bf7565b60405180910390fd5b9392505050565b600073ffffffffffffffffffffffffffffffffffffffff82169050919050565b60006111dd826111b2565b9050919050565b6111ed816111d2565b82525050565b600060208201905061120860008301846111e4565b92915050565b60008115159050919050565b6112238161120e565b82525050565b600060208201905061123e600083018461121a565b92915050565b600080fd5b6000819050919050565b61125c81611249565b811461126757600080fd5b50565b60008135905061127981611253565b92915050565b60006020828403121561129557611294611244565b5b60006112a38482850161126a565b91505092915050565b6000819050919050565b60006112d16112cc6112c7846111b2565b6112ac565b6111b2565b9050919050565b60006112e3826112b6565b9050919050565b60006112f5826112d8565b9050919050565b611305816112ea565b82525050565b600060208201905061132060008301846112fc565b92915050565b61132f816111d2565b811461133a57600080fd5b50565b60008135905061134c81611326565b92915050565b60006020828403121561136857611367611244565b5b60006113768482850161133d565b91505092915050565b61138881611249565b82525050565b60006020820190506113a3600083018461137f565b92915050565b600063ffffffff82169050919050565b6113c2816113a9565b82525050565b60006020820190506113dd60008301846113b9565b92915050565b60006113ee826112d8565b9050919050565b6113fe816113e3565b82525050565b600060208201905061141960008301846113f5565b92915050565b600082825260208201905092915050565b7f41756374696f6e3a205573657220646f6573206e6f742062696420616e79207660008201527f616c7565202f2043616e206e6f74207769746864726177203000000000000000602082015250565b600061148c60398361141f565b915061149782611430565b604082019050919050565b600060208201905081810360008301526114bb8161147f565b9050919050565b7f41756374696f6e3a204973206e6f742073746172746564207965740000000000600082015250565b60006114f8601b8361141f565b9150611503826114c2565b602082019050919050565b60006020820190508181036000830152611527816114eb565b9050919050565b7f41756374696f6e3a2053656c6c6572206578636c756465642066726f6d20626960008201527f6464696e67000000000000000000000000000000000000000000000000000000602082015250565b600061158a60258361141f565b91506115958261152e565b604082019050919050565b600060208201905081810360008301526115b98161157d565b9050919050565b7f41756374696f6e3a2048617320616c726561647920656e646564000000000000600082015250565b60006115f6601a8361141f565b9150611601826115c0565b602082019050919050565b60006020820190508181036000830152611625816115e9565b9050919050565b7f41756374696f6e3a2056616c7565206973206c657373207468616e206869676860008201527f6573742042696400000000000000000000000000000000000000000000000000602082015250565b600061168860278361141f565b91506116938261162c565b604082019050919050565b600060208201905081810360008301526116b78161167b565b9050919050565b7f4e487b7100000000000000000000000000000000000000000000000000000000600052601160045260246000fd5b60006116f882611249565b915061170383611249565b925082820190508082111561171b5761171a6116be565b5b92915050565b7f41756374696f6e3a204e6f7420612053656c6c65720000000000000000000000600082015250565b600061175760158361141f565b915061176282611721565b602082019050919050565b600060208201905081810360008301526117868161174a565b9050919050565b7f41756374696f6e3a2048617320616c7265616479207374617274656400000000600082015250565b60006117c3601c8361141f565b91506117ce8261178d565b602082019050919050565b600060208201905081810360008301526117f2816117b6565b9050919050565b600060608201905061180e60008301866111e4565b61181b60208301856111e4565b611828604083018461137f565b949350505050565b7f41756374696f6e3a2048617320616c65726561647920656e6465640000000000600082015250565b6000611866601b8361141f565b915061187182611830565b602082019050919050565b6000602082019050818103600083015261189581611859565b9050919050565b7f41756374696f6e3a2043616e206e6f7420626520656e64656420796574000000600082015250565b60006118d2601d8361141f565b91506118dd8261189c565b602082019050919050565b60006020820190508181036000830152611901816118c5565b9050919050565b600060408201905061191d60008301856111e4565b61192a602083018461137f565b9392505050565b61193a8161120e565b811461194557600080fd5b50565b60008151905061195781611931565b92915050565b60006020828403121561197357611972611244565b5b600061198184828501611948565b91505092915050565b7f5361666545524332303a204552433230206f7065726174696f6e20646964206e60008201527f6f74207375636365656400000000000000000000000000000000000000000000602082015250565b60006119e6602a8361141f565b91506119f18261198a565b604082019050919050565b60006020820190508181036000830152611a15816119d9565b9050919050565b7f416464726573733a20696e73756666696369656e742062616c616e636520666f60008201527f722063616c6c0000000000000000000000000000000000000000000000000000602082015250565b6000611a7860268361141f565b9150611a8382611a1c565b604082019050919050565b60006020820190508181036000830152611aa781611a6b565b9050919050565b7f416464726573733a2063616c6c20746f206e6f6e2d636f6e7472616374000000600082015250565b6000611ae4601d8361141f565b9150611aef82611aae565b602082019050919050565b60006020820190508181036000830152611b1381611ad7565b9050919050565b600081519050919050565b600081905092915050565b60005b83811015611b4e578082015181840152602081019050611b33565b60008484015250505050565b6000611b6582611b1a565b611b6f8185611b25565b9350611b7f818560208601611b30565b80840191505092915050565b6000611b978284611b5a565b915081905092915050565b600081519050919050565b6000601f19601f8301169050919050565b6000611bc982611ba2565b611bd3818561141f565b9350611be3818560208601611b30565b611bec81611bad565b840191505092915050565b60006020820190508181036000830152611c118184611bbe565b90509291505056fea2646970667358221220d50cec760577487ee27c573e91cddf2d9955e995a55a5949fc97a7dc6b0daa2664736f6c63430008110033",
    "linkReferences": {},
    "deployedLinkReferences": {}
}