{
    "_format": "hh-sol-artifact-1",
    "contractName": "NFTAuction",
    "sourceName": "contracts/NFT.sol",
    "abi": [
        {
            "inputs": [],
            "stateMutability": "nonpayable",
            "type": "constructor"
        },
        {
            "anonymous": false,
            "inputs": [
                {
                    "indexed": true,
                    "internalType": "address",
                    "name": "owner",
                    "type": "address"
                },
                {
                    "indexed": true,
                    "internalType": "address",
                    "name": "approved",
                    "type": "address"
                },
                {
                    "indexed": true,
                    "internalType": "uint256",
                    "name": "tokenId",
                    "type": "uint256"
                }
            ],
            "name": "Approval",
            "type": "event"
        },
        {
            "anonymous": false,
            "inputs": [
                {
                    "indexed": true,
                    "internalType": "address",
                    "name": "owner",
                    "type": "address"
                },
                {
                    "indexed": true,
                    "internalType": "address",
                    "name": "operator",
                    "type": "address"
                },
                {
                    "indexed": false,
                    "internalType": "bool",
                    "name": "approved",
                    "type": "bool"
                }
            ],
            "name": "ApprovalForAll",
            "type": "event"
        },
        {
            "anonymous": false,
            "inputs": [
                {
                    "indexed": true,
                    "internalType": "address",
                    "name": "previousOwner",
                    "type": "address"
                },
                {
                    "indexed": true,
                    "internalType": "address",
                    "name": "newOwner",
                    "type": "address"
                }
            ],
            "name": "OwnershipTransferred",
            "type": "event"
        },
        {
            "anonymous": false,
            "inputs": [
                {
                    "indexed": true,
                    "internalType": "address",
                    "name": "from",
                    "type": "address"
                },
                {
                    "indexed": true,
                    "internalType": "address",
                    "name": "to",
                    "type": "address"
                },
                {
                    "indexed": true,
                    "internalType": "uint256",
                    "name": "tokenId",
                    "type": "uint256"
                }
            ],
            "name": "Transfer",
            "type": "event"
        },
        {
            "inputs": [
                {
                    "internalType": "address",
                    "name": "to",
                    "type": "address"
                },
                {
                    "internalType": "uint256",
                    "name": "tokenId",
                    "type": "uint256"
                }
            ],
            "name": "approve",
            "outputs": [],
            "stateMutability": "nonpayable",
            "type": "function"
        },
        {
            "inputs": [
                {
                    "internalType": "address",
                    "name": "owner",
                    "type": "address"
                }
            ],
            "name": "balanceOf",
            "outputs": [
                {
                    "internalType": "uint256",
                    "name": "",
                    "type": "uint256"
                }
            ],
            "stateMutability": "view",
            "type": "function"
        },
        {
            "inputs": [
                {
                    "internalType": "uint256",
                    "name": "tokenId",
                    "type": "uint256"
                }
            ],
            "name": "burn",
            "outputs": [],
            "stateMutability": "nonpayable",
            "type": "function"
        },
        {
            "inputs": [
                {
                    "internalType": "uint256",
                    "name": "tokenId",
                    "type": "uint256"
                }
            ],
            "name": "getApproved",
            "outputs": [
                {
                    "internalType": "address",
                    "name": "",
                    "type": "address"
                }
            ],
            "stateMutability": "view",
            "type": "function"
        },
        {
            "inputs": [
                {
                    "internalType": "address",
                    "name": "owner",
                    "type": "address"
                },
                {
                    "internalType": "address",
                    "name": "operator",
                    "type": "address"
                }
            ],
            "name": "isApprovedForAll",
            "outputs": [
                {
                    "internalType": "bool",
                    "name": "",
                    "type": "bool"
                }
            ],
            "stateMutability": "view",
            "type": "function"
        },
        {
            "inputs": [],
            "name": "name",
            "outputs": [
                {
                    "internalType": "string",
                    "name": "",
                    "type": "string"
                }
            ],
            "stateMutability": "view",
            "type": "function"
        },
        {
            "inputs": [],
            "name": "owner",
            "outputs": [
                {
                    "internalType": "address",
                    "name": "",
                    "type": "address"
                }
            ],
            "stateMutability": "view",
            "type": "function"
        },
        {
            "inputs": [
                {
                    "internalType": "uint256",
                    "name": "tokenId",
                    "type": "uint256"
                }
            ],
            "name": "ownerOf",
            "outputs": [
                {
                    "internalType": "address",
                    "name": "",
                    "type": "address"
                }
            ],
            "stateMutability": "view",
            "type": "function"
        },
        {
            "inputs": [],
            "name": "renounceOwnership",
            "outputs": [],
            "stateMutability": "nonpayable",
            "type": "function"
        },
        {
            "inputs": [
                {
                    "internalType": "address",
                    "name": "to",
                    "type": "address"
                },
                {
                    "internalType": "string",
                    "name": "uri",
                    "type": "string"
                }
            ],
            "name": "safeMint",
            "outputs": [],
            "stateMutability": "nonpayable",
            "type": "function"
        },
        {
            "inputs": [
                {
                    "internalType": "address",
                    "name": "from",
                    "type": "address"
                },
                {
                    "internalType": "address",
                    "name": "to",
                    "type": "address"
                },
                {
                    "internalType": "uint256",
                    "name": "tokenId",
                    "type": "uint256"
                }
            ],
            "name": "safeTransferFrom",
            "outputs": [],
            "stateMutability": "nonpayable",
            "type": "function"
        },
        {
            "inputs": [
                {
                    "internalType": "address",
                    "name": "from",
                    "type": "address"
                },
                {
                    "internalType": "address",
                    "name": "to",
                    "type": "address"
                },
                {
                    "internalType": "uint256",
                    "name": "tokenId",
                    "type": "uint256"
                },
                {
                    "internalType": "bytes",
                    "name": "data",
                    "type": "bytes"
                }
            ],
            "name": "safeTransferFrom",
            "outputs": [],
            "stateMutability": "nonpayable",
            "type": "function"
        },
        {
            "inputs": [
                {
                    "internalType": "address",
                    "name": "operator",
                    "type": "address"
                },
                {
                    "internalType": "bool",
                    "name": "approved",
                    "type": "bool"
                }
            ],
            "name": "setApprovalForAll",
            "outputs": [],
            "stateMutability": "nonpayable",
            "type": "function"
        },
        {
            "inputs": [
                {
                    "internalType": "bytes4",
                    "name": "interfaceId",
                    "type": "bytes4"
                }
            ],
            "name": "supportsInterface",
            "outputs": [
                {
                    "internalType": "bool",
                    "name": "",
                    "type": "bool"
                }
            ],
            "stateMutability": "view",
            "type": "function"
        },
        {
            "inputs": [],
            "name": "symbol",
            "outputs": [
                {
                    "internalType": "string",
                    "name": "",
                    "type": "string"
                }
            ],
            "stateMutability": "view",
            "type": "function"
        },
        {
            "inputs": [
                {
                    "internalType": "uint256",
                    "name": "tokenId",
                    "type": "uint256"
                }
            ],
            "name": "tokenURI",
            "outputs": [
                {
                    "internalType": "string",
                    "name": "",
                    "type": "string"
                }
            ],
            "stateMutability": "view",
            "type": "function"
        },
        {
            "inputs": [
                {
                    "internalType": "address",
                    "name": "from",
                    "type": "address"
                },
                {
                    "internalType": "address",
                    "name": "to",
                    "type": "address"
                },
                {
                    "internalType": "uint256",
                    "name": "tokenId",
                    "type": "uint256"
                }
            ],
            "name": "transferFrom",
            "outputs": [],
            "stateMutability": "nonpayable",
            "type": "function"
        },
        {
            "inputs": [
                {
                    "internalType": "address",
                    "name": "newOwner",
                    "type": "address"
                }
            ],
            "name": "transferOwnership",
            "outputs": [],
            "stateMutability": "nonpayable",
            "type": "function"
        }
    ],
    "bytecode": "0x60806040523480156200001157600080fd5b506040518060400160405280600a81526020017f4e465461756374696f6e000000000000000000000000000000000000000000008152506040518060400160405280600481526020017f4e4654610000000000000000000000000000000000000000000000000000000081525081600090816200008f919062000412565b508060019081620000a1919062000412565b505050620000c4620000b8620000ca60201b60201c565b620000d260201b60201c565b620004f9565b600033905090565b6000600760009054906101000a900473ffffffffffffffffffffffffffffffffffffffff16905081600760006101000a81548173ffffffffffffffffffffffffffffffffffffffff021916908373ffffffffffffffffffffffffffffffffffffffff1602179055508173ffffffffffffffffffffffffffffffffffffffff168173ffffffffffffffffffffffffffffffffffffffff167f8be0079c531659141344cd1fd0a4f28419497f9722a3daafe3b4186f6b6457e060405160405180910390a35050565b600081519050919050565b7f4e487b7100000000000000000000000000000000000000000000000000000000600052604160045260246000fd5b7f4e487b7100000000000000000000000000000000000000000000000000000000600052602260045260246000fd5b600060028204905060018216806200021a57607f821691505b60208210810362000230576200022f620001d2565b5b50919050565b60008190508160005260206000209050919050565b60006020601f8301049050919050565b600082821b905092915050565b6000600883026200029a7fffffffffffffffffffffffffffffffffffffffffffffffffffffffffffffffff826200025b565b620002a686836200025b565b95508019841693508086168417925050509392505050565b6000819050919050565b6000819050919050565b6000620002f3620002ed620002e784620002be565b620002c8565b620002be565b9050919050565b6000819050919050565b6200030f83620002d2565b620003276200031e82620002fa565b84845462000268565b825550505050565b600090565b6200033e6200032f565b6200034b81848462000304565b505050565b5b8181101562000373576200036760008262000334565b60018101905062000351565b5050565b601f821115620003c2576200038c8162000236565b62000397846200024b565b81016020851015620003a7578190505b620003bf620003b6856200024b565b83018262000350565b50505b505050565b600082821c905092915050565b6000620003e760001984600802620003c7565b1980831691505092915050565b6000620004028383620003d4565b9150826002028217905092915050565b6200041d8262000198565b67ffffffffffffffff811115620004395762000438620001a3565b5b62000445825462000201565b6200045282828562000377565b600060209050601f8311600181146200048a576000841562000475578287015190505b620004818582620003f4565b865550620004f1565b601f1984166200049a8662000236565b60005b82811015620004c4578489015182556001820191506020850194506020810190506200049d565b86831015620004e45784890151620004e0601f891682620003d4565b8355505b6001600288020188555050505b505050505050565b61307380620005096000396000f3fe608060405234801561001057600080fd5b50600436106101165760003560e01c8063715018a6116100a2578063b88d4fde11610071578063b88d4fde146102cb578063c87b56dd146102e7578063d204c45e14610317578063e985e9c514610333578063f2fde38b1461036357610116565b8063715018a6146102695780638da5cb5b1461027357806395d89b4114610291578063a22cb465146102af57610116565b806323b872dd116100e957806323b872dd146101b557806342842e0e146101d157806342966c68146101ed5780636352211e1461020957806370a082311461023957610116565b806301ffc9a71461011b57806306fdde031461014b578063081812fc14610169578063095ea7b314610199575b600080fd5b61013560048036038101906101309190611cf4565b61037f565b6040516101429190611d3c565b60405180910390f35b610153610461565b6040516101609190611de7565b60405180910390f35b610183600480360381019061017e9190611e3f565b6104f3565b6040516101909190611ead565b60405180910390f35b6101b360048036038101906101ae9190611ef4565b610539565b005b6101cf60048036038101906101ca9190611f34565b610650565b005b6101eb60048036038101906101e69190611f34565b6106b0565b005b61020760048036038101906102029190611e3f565b6106d0565b005b610223600480360381019061021e9190611e3f565b61072c565b6040516102309190611ead565b60405180910390f35b610253600480360381019061024e9190611f87565b6107dd565b6040516102609190611fc3565b60405180910390f35b610271610894565b005b61027b6108a8565b6040516102889190611ead565b60405180910390f35b6102996108d2565b6040516102a69190611de7565b60405180910390f35b6102c960048036038101906102c4919061200a565b610964565b005b6102e560048036038101906102e0919061217f565b61097a565b005b61030160048036038101906102fc9190611e3f565b6109dc565b60405161030e9190611de7565b60405180910390f35b610331600480360381019061032c91906122a3565b6109ee565b005b61034d600480360381019061034891906122ff565b610a27565b60405161035a9190611d3c565b60405180910390f35b61037d60048036038101906103789190611f87565b610abb565b005b60007f80ac58cd000000000000000000000000000000000000000000000000000000007bffffffffffffffffffffffffffffffffffffffffffffffffffffffff1916827bffffffffffffffffffffffffffffffffffffffffffffffffffffffff1916148061044a57507f5b5e139f000000000000000000000000000000000000000000000000000000007bffffffffffffffffffffffffffffffffffffffffffffffffffffffff1916827bffffffffffffffffffffffffffffffffffffffffffffffffffffffff1916145b8061045a575061045982610b3e565b5b9050919050565b6060600080546104709061236e565b80601f016020809104026020016040519081016040528092919081815260200182805461049c9061236e565b80156104e95780601f106104be576101008083540402835291602001916104e9565b820191906000526020600020905b8154815290600101906020018083116104cc57829003601f168201915b5050505050905090565b60006104fe82610ba8565b6004600083815260200190815260200160002060009054906101000a900473ffffffffffffffffffffffffffffffffffffffff169050919050565b60006105448261072c565b90508073ffffffffffffffffffffffffffffffffffffffff168373ffffffffffffffffffffffffffffffffffffffff16036105b4576040517f08c379a00000000000000000000000000000000000000000000000000000000081526004016105ab90612411565b60405180910390fd5b8073ffffffffffffffffffffffffffffffffffffffff166105d3610bf3565b73ffffffffffffffffffffffffffffffffffffffff1614806106025750610601816105fc610bf3565b610a27565b5b610641576040517f08c379a0000000000000000000000000000000000000000000000000000000008152600401610638906124a3565b60405180910390fd5b61064b8383610bfb565b505050565b61066161065b610bf3565b82610cb4565b6106a0576040517f08c379a000000000000000000000000000000000000000000000000000000000815260040161069790612535565b60405180910390fd5b6106ab838383610d49565b505050565b6106cb8383836040518060200160405280600081525061097a565b505050565b6106e16106db610bf3565b82610cb4565b610720576040517f08c379a000000000000000000000000000000000000000000000000000000000815260040161071790612535565b60405180910390fd5b61072981610faf565b50565b6000806002600084815260200190815260200160002060009054906101000a900473ffffffffffffffffffffffffffffffffffffffff169050600073ffffffffffffffffffffffffffffffffffffffff168173ffffffffffffffffffffffffffffffffffffffff16036107d4576040517f08c379a00000000000000000000000000000000000000000000000000000000081526004016107cb906125a1565b60405180910390fd5b80915050919050565b60008073ffffffffffffffffffffffffffffffffffffffff168273ffffffffffffffffffffffffffffffffffffffff160361084d576040517f08c379a000000000000000000000000000000000000000000000000000000000815260040161084490612633565b60405180910390fd5b600360008373ffffffffffffffffffffffffffffffffffffffff1673ffffffffffffffffffffffffffffffffffffffff168152602001908152602001600020549050919050565b61089c610fbb565b6108a66000611039565b565b6000600760009054906101000a900473ffffffffffffffffffffffffffffffffffffffff16905090565b6060600180546108e19061236e565b80601f016020809104026020016040519081016040528092919081815260200182805461090d9061236e565b801561095a5780601f1061092f5761010080835404028352916020019161095a565b820191906000526020600020905b81548152906001019060200180831161093d57829003601f168201915b5050505050905090565b61097661096f610bf3565b83836110ff565b5050565b61098b610985610bf3565b83610cb4565b6109ca576040517f08c379a00000000000000000000000000000000000000000000000000000000081526004016109c190612535565b60405180910390fd5b6109d68484848461126b565b50505050565b60606109e7826112c7565b9050919050565b6109f6610fbb565b6000610a0260086113d9565b9050610a0e60086113e7565b610a1883826113fd565b610a22818361141b565b505050565b6000600560008473ffffffffffffffffffffffffffffffffffffffff1673ffffffffffffffffffffffffffffffffffffffff16815260200190815260200160002060008373ffffffffffffffffffffffffffffffffffffffff1673ffffffffffffffffffffffffffffffffffffffff16815260200190815260200160002060009054906101000a900460ff16905092915050565b610ac3610fbb565b600073ffffffffffffffffffffffffffffffffffffffff168173ffffffffffffffffffffffffffffffffffffffff1603610b32576040517f08c379a0000000000000000000000000000000000000000000000000000000008152600401610b29906126c5565b60405180910390fd5b610b3b81611039565b50565b60007f01ffc9a7000000000000000000000000000000000000000000000000000000007bffffffffffffffffffffffffffffffffffffffffffffffffffffffff1916827bffffffffffffffffffffffffffffffffffffffffffffffffffffffff1916149050919050565b610bb181611488565b610bf0576040517f08c379a0000000000000000000000000000000000000000000000000000000008152600401610be7906125a1565b60405180910390fd5b50565b600033905090565b816004600083815260200190815260200160002060006101000a81548173ffffffffffffffffffffffffffffffffffffffff021916908373ffffffffffffffffffffffffffffffffffffffff160217905550808273ffffffffffffffffffffffffffffffffffffffff16610c6e8361072c565b73ffffffffffffffffffffffffffffffffffffffff167f8c5be1e5ebec7d5bd14f71427d1e84f3dd0314c0f7b2291e5b200ac8c7c3b92560405160405180910390a45050565b600080610cc08361072c565b90508073ffffffffffffffffffffffffffffffffffffffff168473ffffffffffffffffffffffffffffffffffffffff161480610d025750610d018185610a27565b5b80610d4057508373ffffffffffffffffffffffffffffffffffffffff16610d28846104f3565b73ffffffffffffffffffffffffffffffffffffffff16145b91505092915050565b8273ffffffffffffffffffffffffffffffffffffffff16610d698261072c565b73ffffffffffffffffffffffffffffffffffffffff1614610dbf576040517f08c379a0000000000000000000000000000000000000000000000000000000008152600401610db690612757565b60405180910390fd5b600073ffffffffffffffffffffffffffffffffffffffff168273ffffffffffffffffffffffffffffffffffffffff1603610e2e576040517f08c379a0000000000000000000000000000000000000000000000000000000008152600401610e25906127e9565b60405180910390fd5b610e398383836114f4565b610e44600082610bfb565b6001600360008573ffffffffffffffffffffffffffffffffffffffff1673ffffffffffffffffffffffffffffffffffffffff1681526020019081526020016000206000828254610e949190612838565b925050819055506001600360008473ffffffffffffffffffffffffffffffffffffffff1673ffffffffffffffffffffffffffffffffffffffff1681526020019081526020016000206000828254610eeb919061286c565b92505081905550816002600083815260200190815260200160002060006101000a81548173ffffffffffffffffffffffffffffffffffffffff021916908373ffffffffffffffffffffffffffffffffffffffff160217905550808273ffffffffffffffffffffffffffffffffffffffff168473ffffffffffffffffffffffffffffffffffffffff167fddf252ad1be2c89b69c2b068fc378daa952ba7f163c4a11628f55a4df523b3ef60405160405180910390a4610faa8383836114f9565b505050565b610fb8816114fe565b50565b610fc3610bf3565b73ffffffffffffffffffffffffffffffffffffffff16610fe16108a8565b73ffffffffffffffffffffffffffffffffffffffff1614611037576040517f08c379a000000000000000000000000000000000000000000000000000000000815260040161102e906128ec565b60405180910390fd5b565b6000600760009054906101000a900473ffffffffffffffffffffffffffffffffffffffff16905081600760006101000a81548173ffffffffffffffffffffffffffffffffffffffff021916908373ffffffffffffffffffffffffffffffffffffffff1602179055508173ffffffffffffffffffffffffffffffffffffffff168173ffffffffffffffffffffffffffffffffffffffff167f8be0079c531659141344cd1fd0a4f28419497f9722a3daafe3b4186f6b6457e060405160405180910390a35050565b8173ffffffffffffffffffffffffffffffffffffffff168373ffffffffffffffffffffffffffffffffffffffff160361116d576040517f08c379a000000000000000000000000000000000000000000000000000000000815260040161116490612958565b60405180910390fd5b80600560008573ffffffffffffffffffffffffffffffffffffffff1673ffffffffffffffffffffffffffffffffffffffff16815260200190815260200160002060008473ffffffffffffffffffffffffffffffffffffffff1673ffffffffffffffffffffffffffffffffffffffff16815260200190815260200160002060006101000a81548160ff0219169083151502179055508173ffffffffffffffffffffffffffffffffffffffff168373ffffffffffffffffffffffffffffffffffffffff167f17307eab39ab6107e8899845ad3d59bd9653f200f220920489ca2b5937696c318360405161125e9190611d3c565b60405180910390a3505050565b611276848484610d49565b61128284848484611551565b6112c1576040517f08c379a00000000000000000000000000000000000000000000000000000000081526004016112b8906129ea565b60405180910390fd5b50505050565b60606112d282610ba8565b60006006600084815260200190815260200160002080546112f29061236e565b80601f016020809104026020016040519081016040528092919081815260200182805461131e9061236e565b801561136b5780601f106113405761010080835404028352916020019161136b565b820191906000526020600020905b81548152906001019060200180831161134e57829003601f168201915b50505050509050600061137c6116d8565b905060008151036113915781925050506113d4565b6000825111156113c65780826040516020016113ae929190612a46565b604051602081830303815290604052925050506113d4565b6113cf846116ef565b925050505b919050565b600081600001549050919050565b6001816000016000828254019250508190555050565b611417828260405180602001604052806000815250611757565b5050565b61142482611488565b611463576040517f08c379a000000000000000000000000000000000000000000000000000000000815260040161145a90612adc565b60405180910390fd5b806006600084815260200190815260200160002090816114839190612ca8565b505050565b60008073ffffffffffffffffffffffffffffffffffffffff166002600084815260200190815260200160002060009054906101000a900473ffffffffffffffffffffffffffffffffffffffff1673ffffffffffffffffffffffffffffffffffffffff1614159050919050565b505050565b505050565b611507816117b2565b60006006600083815260200190815260200160002080546115279061236e565b90501461154e5760066000828152602001908152602001600020600061154d9190611c2b565b5b50565b60006115728473ffffffffffffffffffffffffffffffffffffffff166118cf565b156116cb578373ffffffffffffffffffffffffffffffffffffffff1663150b7a0261159b610bf3565b8786866040518563ffffffff1660e01b81526004016115bd9493929190612dcf565b6020604051808303816000875af19250505080156115f957506040513d601f19601f820116820180604052508101906115f69190612e30565b60015b61167b573d8060008114611629576040519150601f19603f3d011682016040523d82523d6000602084013e61162e565b606091505b506000815103611673576040517f08c379a000000000000000000000000000000000000000000000000000000000815260040161166a906129ea565b60405180910390fd5b805181602001fd5b63150b7a0260e01b7bffffffffffffffffffffffffffffffffffffffffffffffffffffffff1916817bffffffffffffffffffffffffffffffffffffffffffffffffffffffff1916149150506116d0565b600190505b949350505050565b606060405180602001604052806000815250905090565b60606116fa82610ba8565b60006117046116d8565b90506000815111611724576040518060200160405280600081525061174f565b8061172e846118f2565b60405160200161173f929190612a46565b6040516020818303038152906040525b915050919050565b6117618383611a52565b61176e6000848484611551565b6117ad576040517f08c379a00000000000000000000000000000000000000000000000000000000081526004016117a4906129ea565b60405180910390fd5b505050565b60006117bd8261072c565b90506117cb816000846114f4565b6117d6600083610bfb565b6001600360008373ffffffffffffffffffffffffffffffffffffffff1673ffffffffffffffffffffffffffffffffffffffff16815260200190815260200160002060008282546118269190612838565b925050819055506002600083815260200190815260200160002060006101000a81549073ffffffffffffffffffffffffffffffffffffffff021916905581600073ffffffffffffffffffffffffffffffffffffffff168273ffffffffffffffffffffffffffffffffffffffff167fddf252ad1be2c89b69c2b068fc378daa952ba7f163c4a11628f55a4df523b3ef60405160405180910390a46118cb816000846114f9565b5050565b6000808273ffffffffffffffffffffffffffffffffffffffff163b119050919050565b606060008203611939576040518060400160405280600181526020017f30000000000000000000000000000000000000000000000000000000000000008152509050611a4d565b600082905060005b6000821461196b57808061195490612e5d565b915050600a826119649190612ed4565b9150611941565b60008167ffffffffffffffff81111561198757611986612054565b5b6040519080825280601f01601f1916602001820160405280156119b95781602001600182028036833780820191505090505b5090505b60008514611a46576001826119d29190612838565b9150600a856119e19190612f05565b60306119ed919061286c565b60f81b818381518110611a0357611a02612f36565b5b60200101907effffffffffffffffffffffffffffffffffffffffffffffffffffffffffffff1916908160001a905350600a85611a3f9190612ed4565b94506119bd565b8093505050505b919050565b600073ffffffffffffffffffffffffffffffffffffffff168273ffffffffffffffffffffffffffffffffffffffff1603611ac1576040517f08c379a0000000000000000000000000000000000000000000000000000000008152600401611ab890612fb1565b60405180910390fd5b611aca81611488565b15611b0a576040517f08c379a0000000000000000000000000000000000000000000000000000000008152600401611b019061301d565b60405180910390fd5b611b16600083836114f4565b6001600360008473ffffffffffffffffffffffffffffffffffffffff1673ffffffffffffffffffffffffffffffffffffffff1681526020019081526020016000206000828254611b66919061286c565b92505081905550816002600083815260200190815260200160002060006101000a81548173ffffffffffffffffffffffffffffffffffffffff021916908373ffffffffffffffffffffffffffffffffffffffff160217905550808273ffffffffffffffffffffffffffffffffffffffff16600073ffffffffffffffffffffffffffffffffffffffff167fddf252ad1be2c89b69c2b068fc378daa952ba7f163c4a11628f55a4df523b3ef60405160405180910390a4611c27600083836114f9565b5050565b508054611c379061236e565b6000825580601f10611c495750611c68565b601f016020900490600052602060002090810190611c679190611c6b565b5b50565b5b80821115611c84576000816000905550600101611c6c565b5090565b6000604051905090565b600080fd5b600080fd5b60007fffffffff0000000000000000000000000000000000000000000000000000000082169050919050565b611cd181611c9c565b8114611cdc57600080fd5b50565b600081359050611cee81611cc8565b92915050565b600060208284031215611d0a57611d09611c92565b5b6000611d1884828501611cdf565b91505092915050565b60008115159050919050565b611d3681611d21565b82525050565b6000602082019050611d516000830184611d2d565b92915050565b600081519050919050565b600082825260208201905092915050565b60005b83811015611d91578082015181840152602081019050611d76565b60008484015250505050565b6000601f19601f8301169050919050565b6000611db982611d57565b611dc38185611d62565b9350611dd3818560208601611d73565b611ddc81611d9d565b840191505092915050565b60006020820190508181036000830152611e018184611dae565b905092915050565b6000819050919050565b611e1c81611e09565b8114611e2757600080fd5b50565b600081359050611e3981611e13565b92915050565b600060208284031215611e5557611e54611c92565b5b6000611e6384828501611e2a565b91505092915050565b600073ffffffffffffffffffffffffffffffffffffffff82169050919050565b6000611e9782611e6c565b9050919050565b611ea781611e8c565b82525050565b6000602082019050611ec26000830184611e9e565b92915050565b611ed181611e8c565b8114611edc57600080fd5b50565b600081359050611eee81611ec8565b92915050565b60008060408385031215611f0b57611f0a611c92565b5b6000611f1985828601611edf565b9250506020611f2a85828601611e2a565b9150509250929050565b600080600060608486031215611f4d57611f4c611c92565b5b6000611f5b86828701611edf565b9350506020611f6c86828701611edf565b9250506040611f7d86828701611e2a565b9150509250925092565b600060208284031215611f9d57611f9c611c92565b5b6000611fab84828501611edf565b91505092915050565b611fbd81611e09565b82525050565b6000602082019050611fd86000830184611fb4565b92915050565b611fe781611d21565b8114611ff257600080fd5b50565b60008135905061200481611fde565b92915050565b6000806040838503121561202157612020611c92565b5b600061202f85828601611edf565b925050602061204085828601611ff5565b9150509250929050565b600080fd5b600080fd5b7f4e487b7100000000000000000000000000000000000000000000000000000000600052604160045260246000fd5b61208c82611d9d565b810181811067ffffffffffffffff821117156120ab576120aa612054565b5b80604052505050565b60006120be611c88565b90506120ca8282612083565b919050565b600067ffffffffffffffff8211156120ea576120e9612054565b5b6120f382611d9d565b9050602081019050919050565b82818337600083830152505050565b600061212261211d846120cf565b6120b4565b90508281526020810184848401111561213e5761213d61204f565b5b612149848285612100565b509392505050565b600082601f8301126121665761216561204a565b5b813561217684826020860161210f565b91505092915050565b6000806000806080858703121561219957612198611c92565b5b60006121a787828801611edf565b94505060206121b887828801611edf565b93505060406121c987828801611e2a565b925050606085013567ffffffffffffffff8111156121ea576121e9611c97565b5b6121f687828801612151565b91505092959194509250565b600067ffffffffffffffff82111561221d5761221c612054565b5b61222682611d9d565b9050602081019050919050565b600061224661224184612202565b6120b4565b9050828152602081018484840111156122625761226161204f565b5b61226d848285612100565b509392505050565b600082601f83011261228a5761228961204a565b5b813561229a848260208601612233565b91505092915050565b600080604083850312156122ba576122b9611c92565b5b60006122c885828601611edf565b925050602083013567ffffffffffffffff8111156122e9576122e8611c97565b5b6122f585828601612275565b9150509250929050565b6000806040838503121561231657612315611c92565b5b600061232485828601611edf565b925050602061233585828601611edf565b9150509250929050565b7f4e487b7100000000000000000000000000000000000000000000000000000000600052602260045260246000fd5b6000600282049050600182168061238657607f821691505b6020821081036123995761239861233f565b5b50919050565b7f4552433732313a20617070726f76616c20746f2063757272656e74206f776e6560008201527f7200000000000000000000000000000000000000000000000000000000000000602082015250565b60006123fb602183611d62565b91506124068261239f565b604082019050919050565b6000602082019050818103600083015261242a816123ee565b9050919050565b7f4552433732313a20617070726f76652063616c6c6572206973206e6f7420746f60008201527f6b656e206f776e6572206e6f7220617070726f76656420666f7220616c6c0000602082015250565b600061248d603e83611d62565b915061249882612431565b604082019050919050565b600060208201905081810360008301526124bc81612480565b9050919050565b7f4552433732313a2063616c6c6572206973206e6f7420746f6b656e206f776e6560008201527f72206e6f7220617070726f766564000000000000000000000000000000000000602082015250565b600061251f602e83611d62565b915061252a826124c3565b604082019050919050565b6000602082019050818103600083015261254e81612512565b9050919050565b7f4552433732313a20696e76616c696420746f6b656e2049440000000000000000600082015250565b600061258b601883611d62565b915061259682612555565b602082019050919050565b600060208201905081810360008301526125ba8161257e565b9050919050565b7f4552433732313a2061646472657373207a65726f206973206e6f74206120766160008201527f6c6964206f776e65720000000000000000000000000000000000000000000000602082015250565b600061261d602983611d62565b9150612628826125c1565b604082019050919050565b6000602082019050818103600083015261264c81612610565b9050919050565b7f4f776e61626c653a206e6577206f776e657220697320746865207a65726f206160008201527f6464726573730000000000000000000000000000000000000000000000000000602082015250565b60006126af602683611d62565b91506126ba82612653565b604082019050919050565b600060208201905081810360008301526126de816126a2565b9050919050565b7f4552433732313a207472616e736665722066726f6d20696e636f72726563742060008201527f6f776e6572000000000000000000000000000000000000000000000000000000602082015250565b6000612741602583611d62565b915061274c826126e5565b604082019050919050565b6000602082019050818103600083015261277081612734565b9050919050565b7f4552433732313a207472616e7366657220746f20746865207a65726f2061646460008201527f7265737300000000000000000000000000000000000000000000000000000000602082015250565b60006127d3602483611d62565b91506127de82612777565b604082019050919050565b60006020820190508181036000830152612802816127c6565b9050919050565b7f4e487b7100000000000000000000000000000000000000000000000000000000600052601160045260246000fd5b600061284382611e09565b915061284e83611e09565b925082820390508181111561286657612865612809565b5b92915050565b600061287782611e09565b915061288283611e09565b925082820190508082111561289a57612899612809565b5b92915050565b7f4f776e61626c653a2063616c6c6572206973206e6f7420746865206f776e6572600082015250565b60006128d6602083611d62565b91506128e1826128a0565b602082019050919050565b60006020820190508181036000830152612905816128c9565b9050919050565b7f4552433732313a20617070726f766520746f2063616c6c657200000000000000600082015250565b6000612942601983611d62565b915061294d8261290c565b602082019050919050565b6000602082019050818103600083015261297181612935565b9050919050565b7f4552433732313a207472616e7366657220746f206e6f6e20455243373231526560008201527f63656976657220696d706c656d656e7465720000000000000000000000000000602082015250565b60006129d4603283611d62565b91506129df82612978565b604082019050919050565b60006020820190508181036000830152612a03816129c7565b9050919050565b600081905092915050565b6000612a2082611d57565b612a2a8185612a0a565b9350612a3a818560208601611d73565b80840191505092915050565b6000612a528285612a15565b9150612a5e8284612a15565b91508190509392505050565b7f45524337323155524953746f726167653a2055524920736574206f66206e6f6e60008201527f6578697374656e7420746f6b656e000000000000000000000000000000000000602082015250565b6000612ac6602e83611d62565b9150612ad182612a6a565b604082019050919050565b60006020820190508181036000830152612af581612ab9565b9050919050565b60008190508160005260206000209050919050565b60006020601f8301049050919050565b600082821b905092915050565b600060088302612b5e7fffffffffffffffffffffffffffffffffffffffffffffffffffffffffffffffff82612b21565b612b688683612b21565b95508019841693508086168417925050509392505050565b6000819050919050565b6000612ba5612ba0612b9b84611e09565b612b80565b611e09565b9050919050565b6000819050919050565b612bbf83612b8a565b612bd3612bcb82612bac565b848454612b2e565b825550505050565b600090565b612be8612bdb565b612bf3818484612bb6565b505050565b5b81811015612c1757612c0c600082612be0565b600181019050612bf9565b5050565b601f821115612c5c57612c2d81612afc565b612c3684612b11565b81016020851015612c45578190505b612c59612c5185612b11565b830182612bf8565b50505b505050565b600082821c905092915050565b6000612c7f60001984600802612c61565b1980831691505092915050565b6000612c988383612c6e565b9150826002028217905092915050565b612cb182611d57565b67ffffffffffffffff811115612cca57612cc9612054565b5b612cd4825461236e565b612cdf828285612c1b565b600060209050601f831160018114612d125760008415612d00578287015190505b612d0a8582612c8c565b865550612d72565b601f198416612d2086612afc565b60005b82811015612d4857848901518255600182019150602085019450602081019050612d23565b86831015612d655784890151612d61601f891682612c6e565b8355505b6001600288020188555050505b505050505050565b600081519050919050565b600082825260208201905092915050565b6000612da182612d7a565b612dab8185612d85565b9350612dbb818560208601611d73565b612dc481611d9d565b840191505092915050565b6000608082019050612de46000830187611e9e565b612df16020830186611e9e565b612dfe6040830185611fb4565b8181036060830152612e108184612d96565b905095945050505050565b600081519050612e2a81611cc8565b92915050565b600060208284031215612e4657612e45611c92565b5b6000612e5484828501612e1b565b91505092915050565b6000612e6882611e09565b91507fffffffffffffffffffffffffffffffffffffffffffffffffffffffffffffffff8203612e9a57612e99612809565b5b600182019050919050565b7f4e487b7100000000000000000000000000000000000000000000000000000000600052601260045260246000fd5b6000612edf82611e09565b9150612eea83611e09565b925082612efa57612ef9612ea5565b5b828204905092915050565b6000612f1082611e09565b9150612f1b83611e09565b925082612f2b57612f2a612ea5565b5b828206905092915050565b7f4e487b7100000000000000000000000000000000000000000000000000000000600052603260045260246000fd5b7f4552433732313a206d696e7420746f20746865207a65726f2061646472657373600082015250565b6000612f9b602083611d62565b9150612fa682612f65565b602082019050919050565b60006020820190508181036000830152612fca81612f8e565b9050919050565b7f4552433732313a20746f6b656e20616c7265616479206d696e74656400000000600082015250565b6000613007601c83611d62565b915061301282612fd1565b602082019050919050565b6000602082019050818103600083015261303681612ffa565b905091905056fea26469706673582212201274165bf183cbb5853ca9b7a55b4bef9bfb9eb267d0a44150dc77ec448da94364736f6c63430008110033",
    "linkReferences": {},
    "deployedLinkReferences": {}
}